{
  "_format": "hh-sol-artifact-1",
  "contractName": "Money",
  "sourceName": "contracts/Money.sol",
  "abi": [
    {
      "inputs": [
        {
          "internalType": "uint256",
          "name": "_money",
          "type": "uint256"
        }
      ],
      "name": "deposit",
      "outputs": [],
      "stateMutability": "nonpayable",
      "type": "function"
    },
    {
      "inputs": [],
      "name": "withdraw",
      "outputs": [
        {
          "internalType": "uint256",
          "name": "",
          "type": "uint256"
        }
      ],
      "stateMutability": "view",
      "type": "function"
    }
  ],
  "bytecode": "0x608060405234801561001057600080fd5b506101dd806100206000396000f3fe608060405234801561001057600080fd5b50600436106100365760003560e01c80633ccfd60b1461003b578063b6b55f2514610059575b600080fd5b610043610075565b60405161005091906100e2565b60405180910390f35b610073600480360381019061006e91906100aa565b61008b565b005b6000600260005461008691906100fd565b905090565b8060008190555050565b6000813590506100a481610190565b92915050565b6000602082840312156100bc57600080fd5b60006100ca84828501610095565b91505092915050565b6100dc81610157565b82525050565b60006020820190506100f760008301846100d3565b92915050565b600061010882610157565b915061011383610157565b9250817fffffffffffffffffffffffffffffffffffffffffffffffffffffffffffffffff048311821515161561014c5761014b610161565b5b828202905092915050565b6000819050919050565b7f4e487b7100000000000000000000000000000000000000000000000000000000600052601160045260246000fd5b61019981610157565b81146101a457600080fd5b5056fea264697066735822122009aaa8166b1828d967ada7cede964a3845620ea9fb3a191bac344f2ac1841abd64736f6c63430008000033",
  "linkReferences": {},
  "deployedLinkReferences": {}
}