{
  "_format": "hh-sol-artifact-1",
  "contractName": "NFTMarketplace",
  "sourceName": "contracts/MyMarketplace.sol",
  "abi": [
    {
      "inputs": [],
      "stateMutability": "nonpayable",
      "type": "constructor"
    },
    {
      "anonymous": false,
      "inputs": [
        {
          "indexed": true,
          "internalType": "address",
          "name": "owner",
          "type": "address"
        },
        {
          "indexed": true,
          "internalType": "address",
          "name": "approved",
          "type": "address"
        },
        {
          "indexed": true,
          "internalType": "uint256",
          "name": "tokenId",
          "type": "uint256"
        }
      ],
      "name": "Approval",
      "type": "event"
    },
    {
      "anonymous": false,
      "inputs": [
        {
          "indexed": true,
          "internalType": "address",
          "name": "owner",
          "type": "address"
        },
        {
          "indexed": true,
          "internalType": "address",
          "name": "operator",
          "type": "address"
        },
        {
          "indexed": false,
          "internalType": "bool",
          "name": "approved",
          "type": "bool"
        }
      ],
      "name": "ApprovalForAll",
      "type": "event"
    },
    {
      "anonymous": false,
      "inputs": [
        {
          "indexed": true,
          "internalType": "address",
          "name": "from",
          "type": "address"
        },
        {
          "indexed": true,
          "internalType": "address",
          "name": "to",
          "type": "address"
        },
        {
          "indexed": true,
          "internalType": "uint256",
          "name": "tokenId",
          "type": "uint256"
        }
      ],
      "name": "Transfer",
      "type": "event"
    },
    {
      "inputs": [
        {
          "internalType": "address",
          "name": "to",
          "type": "address"
        },
        {
          "internalType": "uint256",
          "name": "tokenId",
          "type": "uint256"
        }
      ],
      "name": "approve",
      "outputs": [],
      "stateMutability": "nonpayable",
      "type": "function"
    },
    {
      "inputs": [
        {
          "internalType": "address",
          "name": "owner",
          "type": "address"
        }
      ],
      "name": "balanceOf",
      "outputs": [
        {
          "internalType": "uint256",
          "name": "",
          "type": "uint256"
        }
      ],
      "stateMutability": "view",
      "type": "function"
    },
    {
      "inputs": [
        {
          "internalType": "string",
          "name": "tokenURI",
          "type": "string"
        },
        {
          "internalType": "uint256",
          "name": "price",
          "type": "uint256"
        }
      ],
      "name": "createToken",
      "outputs": [
        {
          "internalType": "uint256",
          "name": "",
          "type": "uint256"
        }
      ],
      "stateMutability": "payable",
      "type": "function"
    },
    {
      "inputs": [
        {
          "internalType": "uint256",
          "name": "tokenId",
          "type": "uint256"
        }
      ],
      "name": "executeSale",
      "outputs": [],
      "stateMutability": "payable",
      "type": "function"
    },
    {
      "inputs": [],
      "name": "getAllNFTs",
      "outputs": [
        {
          "components": [
            {
              "internalType": "uint256",
              "name": "tokenId",
              "type": "uint256"
            },
            {
              "internalType": "address payable",
              "name": "owner",
              "type": "address"
            },
            {
              "internalType": "address payable",
              "name": "seller",
              "type": "address"
            },
            {
              "internalType": "uint256",
              "name": "price",
              "type": "uint256"
            },
            {
              "internalType": "bool",
              "name": "currentlyListed",
              "type": "bool"
            }
          ],
          "internalType": "struct NFTMarketplace.ListedToken[]",
          "name": "",
          "type": "tuple[]"
        }
      ],
      "stateMutability": "view",
      "type": "function"
    },
    {
      "inputs": [
        {
          "internalType": "uint256",
          "name": "tokenId",
          "type": "uint256"
        }
      ],
      "name": "getApproved",
      "outputs": [
        {
          "internalType": "address",
          "name": "",
          "type": "address"
        }
      ],
      "stateMutability": "view",
      "type": "function"
    },
    {
      "inputs": [],
      "name": "getCurrentToken",
      "outputs": [
        {
          "internalType": "uint256",
          "name": "",
          "type": "uint256"
        }
      ],
      "stateMutability": "view",
      "type": "function"
    },
    {
      "inputs": [],
      "name": "getLatestIdToListedToken",
      "outputs": [
        {
          "components": [
            {
              "internalType": "uint256",
              "name": "tokenId",
              "type": "uint256"
            },
            {
              "internalType": "address payable",
              "name": "owner",
              "type": "address"
            },
            {
              "internalType": "address payable",
              "name": "seller",
              "type": "address"
            },
            {
              "internalType": "uint256",
              "name": "price",
              "type": "uint256"
            },
            {
              "internalType": "bool",
              "name": "currentlyListed",
              "type": "bool"
            }
          ],
          "internalType": "struct NFTMarketplace.ListedToken",
          "name": "",
          "type": "tuple"
        }
      ],
      "stateMutability": "view",
      "type": "function"
    },
    {
      "inputs": [],
      "name": "getListPrice",
      "outputs": [
        {
          "internalType": "uint256",
          "name": "",
          "type": "uint256"
        }
      ],
      "stateMutability": "view",
      "type": "function"
    },
    {
      "inputs": [
        {
          "internalType": "uint256",
          "name": "tokenId",
          "type": "uint256"
        }
      ],
      "name": "getListedForTokenId",
      "outputs": [
        {
          "components": [
            {
              "internalType": "uint256",
              "name": "tokenId",
              "type": "uint256"
            },
            {
              "internalType": "address payable",
              "name": "owner",
              "type": "address"
            },
            {
              "internalType": "address payable",
              "name": "seller",
              "type": "address"
            },
            {
              "internalType": "uint256",
              "name": "price",
              "type": "uint256"
            },
            {
              "internalType": "bool",
              "name": "currentlyListed",
              "type": "bool"
            }
          ],
          "internalType": "struct NFTMarketplace.ListedToken",
          "name": "",
          "type": "tuple"
        }
      ],
      "stateMutability": "view",
      "type": "function"
    },
    {
      "inputs": [],
      "name": "getMyNFTs",
      "outputs": [
        {
          "components": [
            {
              "internalType": "uint256",
              "name": "tokenId",
              "type": "uint256"
            },
            {
              "internalType": "address payable",
              "name": "owner",
              "type": "address"
            },
            {
              "internalType": "address payable",
              "name": "seller",
              "type": "address"
            },
            {
              "internalType": "uint256",
              "name": "price",
              "type": "uint256"
            },
            {
              "internalType": "bool",
              "name": "currentlyListed",
              "type": "bool"
            }
          ],
          "internalType": "struct NFTMarketplace.ListedToken[]",
          "name": "",
          "type": "tuple[]"
        }
      ],
      "stateMutability": "view",
      "type": "function"
    },
    {
      "inputs": [
        {
          "internalType": "address",
          "name": "owner",
          "type": "address"
        },
        {
          "internalType": "address",
          "name": "operator",
          "type": "address"
        }
      ],
      "name": "isApprovedForAll",
      "outputs": [
        {
          "internalType": "bool",
          "name": "",
          "type": "bool"
        }
      ],
      "stateMutability": "view",
      "type": "function"
    },
    {
      "inputs": [],
      "name": "name",
      "outputs": [
        {
          "internalType": "string",
          "name": "",
          "type": "string"
        }
      ],
      "stateMutability": "view",
      "type": "function"
    },
    {
      "inputs": [
        {
          "internalType": "uint256",
          "name": "tokenId",
          "type": "uint256"
        }
      ],
      "name": "ownerOf",
      "outputs": [
        {
          "internalType": "address",
          "name": "",
          "type": "address"
        }
      ],
      "stateMutability": "view",
      "type": "function"
    },
    {
      "inputs": [
        {
          "internalType": "address",
          "name": "from",
          "type": "address"
        },
        {
          "internalType": "address",
          "name": "to",
          "type": "address"
        },
        {
          "internalType": "uint256",
          "name": "tokenId",
          "type": "uint256"
        }
      ],
      "name": "safeTransferFrom",
      "outputs": [],
      "stateMutability": "nonpayable",
      "type": "function"
    },
    {
      "inputs": [
        {
          "internalType": "address",
          "name": "from",
          "type": "address"
        },
        {
          "internalType": "address",
          "name": "to",
          "type": "address"
        },
        {
          "internalType": "uint256",
          "name": "tokenId",
          "type": "uint256"
        },
        {
          "internalType": "bytes",
          "name": "data",
          "type": "bytes"
        }
      ],
      "name": "safeTransferFrom",
      "outputs": [],
      "stateMutability": "nonpayable",
      "type": "function"
    },
    {
      "inputs": [
        {
          "internalType": "address",
          "name": "operator",
          "type": "address"
        },
        {
          "internalType": "bool",
          "name": "approved",
          "type": "bool"
        }
      ],
      "name": "setApprovalForAll",
      "outputs": [],
      "stateMutability": "nonpayable",
      "type": "function"
    },
    {
      "inputs": [
        {
          "internalType": "bytes4",
          "name": "interfaceId",
          "type": "bytes4"
        }
      ],
      "name": "supportsInterface",
      "outputs": [
        {
          "internalType": "bool",
          "name": "",
          "type": "bool"
        }
      ],
      "stateMutability": "view",
      "type": "function"
    },
    {
      "inputs": [],
      "name": "symbol",
      "outputs": [
        {
          "internalType": "string",
          "name": "",
          "type": "string"
        }
      ],
      "stateMutability": "view",
      "type": "function"
    },
    {
      "inputs": [
        {
          "internalType": "uint256",
          "name": "tokenId",
          "type": "uint256"
        }
      ],
      "name": "tokenURI",
      "outputs": [
        {
          "internalType": "string",
          "name": "",
          "type": "string"
        }
      ],
      "stateMutability": "view",
      "type": "function"
    },
    {
      "inputs": [
        {
          "internalType": "address",
          "name": "from",
          "type": "address"
        },
        {
          "internalType": "address",
          "name": "to",
          "type": "address"
        },
        {
          "internalType": "uint256",
          "name": "tokenId",
          "type": "uint256"
        }
      ],
      "name": "transferFrom",
      "outputs": [],
      "stateMutability": "nonpayable",
      "type": "function"
    },
    {
      "inputs": [
        {
          "internalType": "uint256",
          "name": "_listPrice",
          "type": "uint256"
        }
      ],
      "name": "updateListPrice",
      "outputs": [],
      "stateMutability": "payable",
      "type": "function"
    }
  ],
  "bytecode": "0x6080604052662386f26fc10000600a553480156200001c57600080fd5b506040518060400160405280600e81526020016d4e46544d61726b6574706c61636560901b815250604051806040016040528060048152602001634e46544d60e01b815250816000908162000072919062000141565b50600162000081828262000141565b5050600780546001600160a01b03191633179055506200020d565b634e487b7160e01b600052604160045260246000fd5b600181811c90821680620000c757607f821691505b602082108103620000e857634e487b7160e01b600052602260045260246000fd5b50919050565b601f8211156200013c57600081815260208120601f850160051c81016020861015620001175750805b601f850160051c820191505b81811015620001385782815560010162000123565b5050505b505050565b81516001600160401b038111156200015d576200015d6200009c565b62000175816200016e8454620000b2565b84620000ee565b602080601f831160018114620001ad5760008415620001945750858301515b600019600386901b1c1916600185901b17855562000138565b600085815260208120601f198616915b82811015620001de57888601518255948401946001909101908401620001bd565b5085821015620001fd5787850151600019600388901b60f8161c191681555b5050505050600190811b01905550565b612156806200021d6000396000f3fe6080604052600436106101355760003560e01c806395d89b41116100ab578063c322579c1161006f578063c322579c14610354578063c87b56dd14610367578063d1a88ae514610387578063e0391b091461039c578063e985e9c5146103b1578063ef2d1746146103fa57600080fd5b806395d89b41146102bf57806398c3df16146102d45780639b1225c414610301578063a22cb46514610314578063b88d4fde1461033457600080fd5b806342842e0e116100fd57806342842e0e1461020b578063629cb2e41461022b5780636352211e1461024d57806368f1945f1461026d57806370a082311461028c57806372b3b620146102ac57600080fd5b806301ffc9a71461013a57806306fdde031461016f578063081812fc14610191578063095ea7b3146101c957806323b872dd146101eb575b600080fd5b34801561014657600080fd5b5061015a610155366004611a71565b61040f565b60405190151581526020015b60405180910390f35b34801561017b57600080fd5b50610184610461565b6040516101669190611ade565b34801561019d57600080fd5b506101b16101ac366004611af1565b6104f3565b6040516001600160a01b039091168152602001610166565b3480156101d557600080fd5b506101e96101e4366004611b26565b61051a565b005b3480156101f757600080fd5b506101e9610206366004611b50565b610634565b34801561021757600080fd5b506101e9610226366004611b50565b610665565b34801561023757600080fd5b50610240610680565b6040516101669190611bcc565b34801561025957600080fd5b506101b1610268366004611af1565b6108a9565b34801561027957600080fd5b50600a545b604051908152602001610166565b34801561029857600080fd5b5061027e6102a7366004611c1a565b610909565b61027e6102ba366004611cc1565b61098f565b3480156102cb57600080fd5b50610184610a7d565b3480156102e057600080fd5b506102f46102ef366004611af1565b610a8c565b6040516101669190611d1a565b6101e961030f366004611af1565b610af6565b34801561032057600080fd5b506101e961032f366004611d28565b610d2b565b34801561034057600080fd5b506101e961034f366004611d64565b610d3a565b6101e9610362366004611af1565b610d72565b34801561037357600080fd5b50610184610382366004611af1565b610dd1565b34801561039357600080fd5b506102f4610ee1565b3480156103a857600080fd5b50610240610f58565b3480156103bd57600080fd5b5061015a6103cc366004611de0565b6001600160a01b03918216600090815260056020908152604080832093909416825291909152205460ff1690565b34801561040657600080fd5b5061027e611083565b60006001600160e01b031982166380ac58cd60e01b148061044057506001600160e01b03198216635b5e139f60e01b145b8061045b57506301ffc9a760e01b6001600160e01b03198316145b92915050565b60606000805461047090611e13565b80601f016020809104026020016040519081016040528092919081815260200182805461049c90611e13565b80156104e95780601f106104be576101008083540402835291602001916104e9565b820191906000526020600020905b8154815290600101906020018083116104cc57829003601f168201915b5050505050905090565b60006104fe82611093565b506000908152600460205260409020546001600160a01b031690565b6000610525826108a9565b9050806001600160a01b0316836001600160a01b0316036105975760405162461bcd60e51b815260206004820152602160248201527f4552433732313a20617070726f76616c20746f2063757272656e74206f776e656044820152603960f91b60648201526084015b60405180910390fd5b336001600160a01b03821614806105b357506105b381336103cc565b6106255760405162461bcd60e51b815260206004820152603d60248201527f4552433732313a20617070726f76652063616c6c6572206973206e6f7420746f60448201527f6b656e206f776e6572206f7220617070726f76656420666f7220616c6c000000606482015260840161058e565b61062f83836110f5565b505050565b61063e3382611163565b61065a5760405162461bcd60e51b815260040161058e90611e4d565b61062f8383836111e1565b61062f83838360405180602001604052806000815250610d3a565b6060600061068d60085490565b905060008060005b838110156107255733600b60006106ad846001611eb0565b81526020810191909152604001600020600101546001600160a01b03161480610700575033600b60006106e1846001611eb0565b81526020810191909152604001600020600201546001600160a01b0316145b1561071357610710600184611eb0565b92505b8061071d81611ec3565b915050610695565b5060008267ffffffffffffffff81111561074157610741611c35565b60405190808252806020026020018201604052801561077a57816020015b610767611a2d565b81526020019060019003908161075f5790505b50905060005b848110156108a05733600b6000610798846001611eb0565b81526020810191909152604001600020600101546001600160a01b031614806107eb575033600b60006107cc846001611eb0565b81526020810191909152604001600020600201546001600160a01b0316145b1561088e5760006107fd826001611eb0565b6000818152600b6020908152604091829020825160a0810184528154815260018201546001600160a01b039081169382019390935260028201549092169282019290925260038201546060820152600482015460ff16151560808201528551929350909185908790811061087357610873611edc565b6020908102919091010152610889600186611eb0565b945050505b8061089881611ec3565b915050610780565b50949350505050565b6000818152600260205260408120546001600160a01b03168061045b5760405162461bcd60e51b8152602060048201526018602482015277115490cdcc8c4e881a5b9d985b1a59081d1bdad95b88125160421b604482015260640161058e565b60006001600160a01b0382166109735760405162461bcd60e51b815260206004820152602960248201527f4552433732313a2061646472657373207a65726f206973206e6f7420612076616044820152683634b21037bbb732b960b91b606482015260840161058e565b506001600160a01b031660009081526003602052604090205490565b6000600a5434146109e25760405162461bcd60e51b815260206004820152601960248201527f53656e6420656e6f75676820657468657220746f206c69737400000000000000604482015260640161058e565b60008211610a3d5760405162461bcd60e51b815260206004820152602260248201527f4d616b652073757265207468652070726963652069736e2774206e6567617469604482015261766560f01b606482015260840161058e565b610a4b600880546001019055565b6000610a5660085490565b9050610a623382611345565b610a6c818561135f565b610a7681846113f2565b9392505050565b60606001805461047090611e13565b610a94611a2d565b506000908152600b6020908152604091829020825160a0810184528154815260018201546001600160a01b03908116938201939093526002820154909216928201929092526003820154606082015260049091015460ff161515608082015290565b6000818152600b6020526040902060030154348114610b7d5760405162461bcd60e51b815260206004820152603f60248201527f506c65617365207375626d6974207468652061736b696e67207072696365206660448201527f6f7220746865204e465420696e206f7264657220746f20707572636861736500606482015260840161058e565b6000828152600b602052604090206002810180546004909201805460ff191660011790556001600160a01b03198216331790556001600160a01b0316610bc7600980546001019055565b610bd23033856111e1565b610bdc308461051a565b600754600a546040516000926001600160a01b031691908381818185875af1925050503d8060008114610c2b576040519150601f19603f3d011682016040523d82523d6000602084013e610c30565b606091505b5050905080610c815760405162461bcd60e51b815260206004820152601960248201527f4661696c656420746f2073656e64206c69737420707269636500000000000000604482015260640161058e565b6000826001600160a01b03163460405160006040518083038185875af1925050503d8060008114610cce576040519150601f19603f3d011682016040523d82523d6000602084013e610cd3565b606091505b5050905080610d245760405162461bcd60e51b815260206004820152601c60248201527f4661696c656420746f2073656e642073656c6c657220616d6f756e7400000000604482015260640161058e565b5050505050565b610d3633838361148f565b5050565b610d443383611163565b610d605760405162461bcd60e51b815260040161058e90611e4d565b610d6c8484848461155d565b50505050565b6007546001600160a01b03163314610dcc5760405162461bcd60e51b815260206004820152601f60248201527f4f6e6c79206f776e657220697320616c6c6f77656420746f2061636365737300604482015260640161058e565b600a55565b6060610ddc82611093565b60008281526006602052604081208054610df590611e13565b80601f0160208091040260200160405190810160405280929190818152602001828054610e2190611e13565b8015610e6e5780601f10610e4357610100808354040283529160200191610e6e565b820191906000526020600020905b815481529060010190602001808311610e5157829003601f168201915b505050505090506000610e8c60408051602081019091526000815290565b90508051600003610e9e575092915050565b815115610ed0578082604051602001610eb8929190611ef2565b60405160208183030381529060405292505050919050565b610ed984611590565b949350505050565b610ee9611a2d565b6000610ef460085490565b6000908152600b6020908152604091829020825160a0810184528154815260018201546001600160a01b03908116938201939093526002820154909216928201929092526003820154606082015260049091015460ff161515608082015292915050565b60606000610f6560085490565b905060008167ffffffffffffffff811115610f8257610f82611c35565b604051908082528060200260200182016040528015610fbb57816020015b610fa8611a2d565b815260200190600190039081610fa05790505b5090506000805b8381101561107a576000610fd7826001611eb0565b6000818152600b6020908152604091829020825160a0810184528154815260018201546001600160a01b039081169382019390935260028201549092169282019290925260038201546060820152600482015460ff16151560808201528651929350909186908690811061104d5761104d611edc565b6020908102919091010152611063600185611eb0565b93505050808061107290611ec3565b915050610fc2565b50909392505050565b600061108e60085490565b905090565b6000818152600260205260409020546001600160a01b03166110f25760405162461bcd60e51b8152602060048201526018602482015277115490cdcc8c4e881a5b9d985b1a59081d1bdad95b88125160421b604482015260640161058e565b50565b600081815260046020526040902080546001600160a01b0319166001600160a01b038416908117909155819061112a826108a9565b6001600160a01b03167f8c5be1e5ebec7d5bd14f71427d1e84f3dd0314c0f7b2291e5b200ac8c7c3b92560405160405180910390a45050565b60008061116f836108a9565b9050806001600160a01b0316846001600160a01b031614806111b657506001600160a01b0380821660009081526005602090815260408083209388168352929052205460ff165b80610ed95750836001600160a01b03166111cf846104f3565b6001600160a01b031614949350505050565b826001600160a01b03166111f4826108a9565b6001600160a01b03161461121a5760405162461bcd60e51b815260040161058e90611f21565b6001600160a01b03821661127c5760405162461bcd60e51b8152602060048201526024808201527f4552433732313a207472616e7366657220746f20746865207a65726f206164646044820152637265737360e01b606482015260840161058e565b826001600160a01b031661128f826108a9565b6001600160a01b0316146112b55760405162461bcd60e51b815260040161058e90611f21565b600081815260046020908152604080832080546001600160a01b03199081169091556001600160a01b0387811680865260038552838620805460001901905590871680865283862080546001019055868652600290945282852080549092168417909155905184937fddf252ad1be2c89b69c2b068fc378daa952ba7f163c4a11628f55a4df523b3ef91a4505050565b610d36828260405180602001604052806000815250611603565b6000828152600260205260409020546001600160a01b03166113da5760405162461bcd60e51b815260206004820152602e60248201527f45524337323155524953746f726167653a2055524920736574206f66206e6f6e60448201526d32bc34b9ba32b73a103a37b5b2b760911b606482015260840161058e565b600082815260066020526040902061062f8282611fb4565b6040805160a081018252838152306020808301828152338486018181526060860188815260016080880181815260008c8152600b9097529890952096518755925193860180546001600160a01b039586166001600160a01b03199182161790915590516002870180549190951691161790925551600384015592516004909201805492151560ff1990931692909217909155610d369190846111e1565b816001600160a01b0316836001600160a01b0316036114f05760405162461bcd60e51b815260206004820152601960248201527f4552433732313a20617070726f766520746f2063616c6c657200000000000000604482015260640161058e565b6001600160a01b03838116600081815260056020908152604080832094871680845294825291829020805460ff191686151590811790915591519182527f17307eab39ab6107e8899845ad3d59bd9653f200f220920489ca2b5937696c31910160405180910390a3505050565b6115688484846111e1565b61157484848484611636565b610d6c5760405162461bcd60e51b815260040161058e90612074565b606061159b82611093565b60006115b260408051602081019091526000815290565b905060008151116115d25760405180602001604052806000815250610a76565b806115dc84611737565b6040516020016115ed929190611ef2565b6040516020818303038152906040529392505050565b61160d83836117ca565b61161a6000848484611636565b61062f5760405162461bcd60e51b815260040161058e90612074565b60006001600160a01b0384163b1561172c57604051630a85bd0160e11b81526001600160a01b0385169063150b7a029061167a9033908990889088906004016120c6565b6020604051808303816000875af19250505080156116b5575060408051601f3d908101601f191682019092526116b291810190612103565b60015b611712573d8080156116e3576040519150601f19603f3d011682016040523d82523d6000602084013e6116e8565b606091505b50805160000361170a5760405162461bcd60e51b815260040161058e90612074565b805181602001fd5b6001600160e01b031916630a85bd0160e11b149050610ed9565b506001949350505050565b6060600061174483611955565b600101905060008167ffffffffffffffff81111561176457611764611c35565b6040519080825280601f01601f19166020018201604052801561178e576020820181803683370190505b5090508181016020015b600019016f181899199a1a9b1b9c1cb0b131b232b360811b600a86061a8153600a850494508461179857509392505050565b6001600160a01b0382166118205760405162461bcd60e51b815260206004820181905260248201527f4552433732313a206d696e7420746f20746865207a65726f2061646472657373604482015260640161058e565b6000818152600260205260409020546001600160a01b0316156118855760405162461bcd60e51b815260206004820152601c60248201527f4552433732313a20746f6b656e20616c7265616479206d696e74656400000000604482015260640161058e565b6000818152600260205260409020546001600160a01b0316156118ea5760405162461bcd60e51b815260206004820152601c60248201527f4552433732313a20746f6b656e20616c7265616479206d696e74656400000000604482015260640161058e565b6001600160a01b038216600081815260036020908152604080832080546001019055848352600290915280822080546001600160a01b0319168417905551839291907fddf252ad1be2c89b69c2b068fc378daa952ba7f163c4a11628f55a4df523b3ef908290a45050565b60008072184f03e93ff9f4daa797ed6e38ed64bf6a1f0160401b83106119945772184f03e93ff9f4daa797ed6e38ed64bf6a1f0160401b830492506040015b6d04ee2d6d415b85acef810000000083106119c0576d04ee2d6d415b85acef8100000000830492506020015b662386f26fc1000083106119de57662386f26fc10000830492506010015b6305f5e10083106119f6576305f5e100830492506008015b6127108310611a0a57612710830492506004015b60648310611a1c576064830492506002015b600a831061045b5760010192915050565b6040805160a08101825260008082526020820181905291810182905260608101829052608081019190915290565b6001600160e01b0319811681146110f257600080fd5b600060208284031215611a8357600080fd5b8135610a7681611a5b565b60005b83811015611aa9578181015183820152602001611a91565b50506000910152565b60008151808452611aca816020860160208601611a8e565b601f01601f19169290920160200192915050565b602081526000610a766020830184611ab2565b600060208284031215611b0357600080fd5b5035919050565b80356001600160a01b0381168114611b2157600080fd5b919050565b60008060408385031215611b3957600080fd5b611b4283611b0a565b946020939093013593505050565b600080600060608486031215611b6557600080fd5b611b6e84611b0a565b9250611b7c60208501611b0a565b9150604084013590509250925092565b805182526020808201516001600160a01b039081169184019190915260408083015190911690830152606080820151908301526080908101511515910152565b6020808252825182820181905260009190848201906040850190845b81811015611c0e57611bfb838551611b8c565b9284019260a09290920191600101611be8565b50909695505050505050565b600060208284031215611c2c57600080fd5b610a7682611b0a565b634e487b7160e01b600052604160045260246000fd5b600067ffffffffffffffff80841115611c6657611c66611c35565b604051601f8501601f19908116603f01168101908282118183101715611c8e57611c8e611c35565b81604052809350858152868686011115611ca757600080fd5b858560208301376000602087830101525050509392505050565b60008060408385031215611cd457600080fd5b823567ffffffffffffffff811115611ceb57600080fd5b8301601f81018513611cfc57600080fd5b611d0b85823560208401611c4b565b95602094909401359450505050565b60a0810161045b8284611b8c565b60008060408385031215611d3b57600080fd5b611d4483611b0a565b915060208301358015158114611d5957600080fd5b809150509250929050565b60008060008060808587031215611d7a57600080fd5b611d8385611b0a565b9350611d9160208601611b0a565b925060408501359150606085013567ffffffffffffffff811115611db457600080fd5b8501601f81018713611dc557600080fd5b611dd487823560208401611c4b565b91505092959194509250565b60008060408385031215611df357600080fd5b611dfc83611b0a565b9150611e0a60208401611b0a565b90509250929050565b600181811c90821680611e2757607f821691505b602082108103611e4757634e487b7160e01b600052602260045260246000fd5b50919050565b6020808252602d908201527f4552433732313a2063616c6c6572206973206e6f7420746f6b656e206f776e6560408201526c1c881bdc88185c1c1c9bdd9959609a1b606082015260800190565b634e487b7160e01b600052601160045260246000fd5b8082018082111561045b5761045b611e9a565b600060018201611ed557611ed5611e9a565b5060010190565b634e487b7160e01b600052603260045260246000fd5b60008351611f04818460208801611a8e565b835190830190611f18818360208801611a8e565b01949350505050565b60208082526025908201527f4552433732313a207472616e736665722066726f6d20696e636f72726563742060408201526437bbb732b960d91b606082015260800190565b601f82111561062f57600081815260208120601f850160051c81016020861015611f8d5750805b601f850160051c820191505b81811015611fac57828155600101611f99565b505050505050565b815167ffffffffffffffff811115611fce57611fce611c35565b611fe281611fdc8454611e13565b84611f66565b602080601f8311600181146120175760008415611fff5750858301515b600019600386901b1c1916600185901b178555611fac565b600085815260208120601f198616915b8281101561204657888601518255948401946001909101908401612027565b50858210156120645787850151600019600388901b60f8161c191681555b5050505050600190811b01905550565b60208082526032908201527f4552433732313a207472616e7366657220746f206e6f6e20455243373231526560408201527131b2b4bb32b91034b6b83632b6b2b73a32b960711b606082015260800190565b6001600160a01b03858116825284166020820152604081018390526080606082018190526000906120f990830184611ab2565b9695505050505050565b60006020828403121561211557600080fd5b8151610a7681611a5b56fea264697066735822122090a80d8dd7e2ec78519a5273010730ea6cb810938e3372aa76b6280d1597aad664736f6c63430008120033",
  "linkReferences": {},
  "deployedLinkReferences": {}
}