{
  "_format": "hh-sol-artifact-1",
  "contractName": "NFTMarketplace",
  "sourceName": "src/backend/contracts/NFTMarketplace.sol",
  "abi": [
    {
      "inputs": [],
      "stateMutability": "nonpayable",
      "type": "constructor"
    },
    {
      "anonymous": false,
      "inputs": [
        {
          "indexed": true,
          "internalType": "address",
          "name": "owner",
          "type": "address"
        },
        {
          "indexed": true,
          "internalType": "address",
          "name": "approved",
          "type": "address"
        },
        {
          "indexed": true,
          "internalType": "uint256",
          "name": "tokenId",
          "type": "uint256"
        }
      ],
      "name": "Approval",
      "type": "event"
    },
    {
      "anonymous": false,
      "inputs": [
        {
          "indexed": true,
          "internalType": "address",
          "name": "owner",
          "type": "address"
        },
        {
          "indexed": true,
          "internalType": "address",
          "name": "operator",
          "type": "address"
        },
        {
          "indexed": false,
          "internalType": "bool",
          "name": "approved",
          "type": "bool"
        }
      ],
      "name": "ApprovalForAll",
      "type": "event"
    },
    {
      "anonymous": false,
      "inputs": [
        {
          "indexed": true,
          "internalType": "address",
          "name": "from",
          "type": "address"
        },
        {
          "indexed": true,
          "internalType": "address",
          "name": "to",
          "type": "address"
        },
        {
          "indexed": true,
          "internalType": "uint256",
          "name": "tokenId",
          "type": "uint256"
        }
      ],
      "name": "Transfer",
      "type": "event"
    },
    {
      "inputs": [
        {
          "internalType": "address",
          "name": "to",
          "type": "address"
        },
        {
          "internalType": "uint256",
          "name": "tokenId",
          "type": "uint256"
        }
      ],
      "name": "approve",
      "outputs": [],
      "stateMutability": "nonpayable",
      "type": "function"
    },
    {
      "inputs": [
        {
          "internalType": "address",
          "name": "owner",
          "type": "address"
        }
      ],
      "name": "balanceOf",
      "outputs": [
        {
          "internalType": "uint256",
          "name": "",
          "type": "uint256"
        }
      ],
      "stateMutability": "view",
      "type": "function"
    },
    {
      "inputs": [
        {
          "internalType": "string",
          "name": "tokenURI",
          "type": "string"
        },
        {
          "internalType": "uint256",
          "name": "price",
          "type": "uint256"
        }
      ],
      "name": "createToken",
      "outputs": [
        {
          "internalType": "uint256",
          "name": "",
          "type": "uint256"
        }
      ],
      "stateMutability": "payable",
      "type": "function"
    },
    {
      "inputs": [
        {
          "internalType": "uint256",
          "name": "tokenId",
          "type": "uint256"
        }
      ],
      "name": "executeSale",
      "outputs": [],
      "stateMutability": "payable",
      "type": "function"
    },
    {
      "inputs": [],
      "name": "getAllNFTs",
      "outputs": [
        {
          "components": [
            {
              "internalType": "uint256",
              "name": "tokenId",
              "type": "uint256"
            },
            {
              "internalType": "address payable",
              "name": "owner",
              "type": "address"
            },
            {
              "internalType": "address payable",
              "name": "seller",
              "type": "address"
            },
            {
              "internalType": "uint256",
              "name": "price",
              "type": "uint256"
            },
            {
              "internalType": "bool",
              "name": "currentlyListed",
              "type": "bool"
            }
          ],
          "internalType": "struct NFTMarketplace.ListedToken[]",
          "name": "",
          "type": "tuple[]"
        }
      ],
      "stateMutability": "view",
      "type": "function"
    },
    {
      "inputs": [
        {
          "internalType": "uint256",
          "name": "tokenId",
          "type": "uint256"
        }
      ],
      "name": "getApproved",
      "outputs": [
        {
          "internalType": "address",
          "name": "",
          "type": "address"
        }
      ],
      "stateMutability": "view",
      "type": "function"
    },
    {
      "inputs": [],
      "name": "getCurrentToken",
      "outputs": [
        {
          "internalType": "uint256",
          "name": "",
          "type": "uint256"
        }
      ],
      "stateMutability": "view",
      "type": "function"
    },
    {
      "inputs": [],
      "name": "getLatestIdToListedToken",
      "outputs": [
        {
          "components": [
            {
              "internalType": "uint256",
              "name": "tokenId",
              "type": "uint256"
            },
            {
              "internalType": "address payable",
              "name": "owner",
              "type": "address"
            },
            {
              "internalType": "address payable",
              "name": "seller",
              "type": "address"
            },
            {
              "internalType": "uint256",
              "name": "price",
              "type": "uint256"
            },
            {
              "internalType": "bool",
              "name": "currentlyListed",
              "type": "bool"
            }
          ],
          "internalType": "struct NFTMarketplace.ListedToken",
          "name": "",
          "type": "tuple"
        }
      ],
      "stateMutability": "view",
      "type": "function"
    },
    {
      "inputs": [],
      "name": "getListPrice",
      "outputs": [
        {
          "internalType": "uint256",
          "name": "",
          "type": "uint256"
        }
      ],
      "stateMutability": "view",
      "type": "function"
    },
    {
      "inputs": [
        {
          "internalType": "uint256",
          "name": "tokenId",
          "type": "uint256"
        }
      ],
      "name": "getListedForTokenId",
      "outputs": [
        {
          "components": [
            {
              "internalType": "uint256",
              "name": "tokenId",
              "type": "uint256"
            },
            {
              "internalType": "address payable",
              "name": "owner",
              "type": "address"
            },
            {
              "internalType": "address payable",
              "name": "seller",
              "type": "address"
            },
            {
              "internalType": "uint256",
              "name": "price",
              "type": "uint256"
            },
            {
              "internalType": "bool",
              "name": "currentlyListed",
              "type": "bool"
            }
          ],
          "internalType": "struct NFTMarketplace.ListedToken",
          "name": "",
          "type": "tuple"
        }
      ],
      "stateMutability": "view",
      "type": "function"
    },
    {
      "inputs": [],
      "name": "getMyNFTs",
      "outputs": [
        {
          "components": [
            {
              "internalType": "uint256",
              "name": "tokenId",
              "type": "uint256"
            },
            {
              "internalType": "address payable",
              "name": "owner",
              "type": "address"
            },
            {
              "internalType": "address payable",
              "name": "seller",
              "type": "address"
            },
            {
              "internalType": "uint256",
              "name": "price",
              "type": "uint256"
            },
            {
              "internalType": "bool",
              "name": "currentlyListed",
              "type": "bool"
            }
          ],
          "internalType": "struct NFTMarketplace.ListedToken[]",
          "name": "",
          "type": "tuple[]"
        }
      ],
      "stateMutability": "view",
      "type": "function"
    },
    {
      "inputs": [
        {
          "internalType": "address",
          "name": "owner",
          "type": "address"
        },
        {
          "internalType": "address",
          "name": "operator",
          "type": "address"
        }
      ],
      "name": "isApprovedForAll",
      "outputs": [
        {
          "internalType": "bool",
          "name": "",
          "type": "bool"
        }
      ],
      "stateMutability": "view",
      "type": "function"
    },
    {
      "inputs": [],
      "name": "name",
      "outputs": [
        {
          "internalType": "string",
          "name": "",
          "type": "string"
        }
      ],
      "stateMutability": "view",
      "type": "function"
    },
    {
      "inputs": [
        {
          "internalType": "uint256",
          "name": "tokenId",
          "type": "uint256"
        }
      ],
      "name": "ownerOf",
      "outputs": [
        {
          "internalType": "address",
          "name": "",
          "type": "address"
        }
      ],
      "stateMutability": "view",
      "type": "function"
    },
    {
      "inputs": [
        {
          "internalType": "address",
          "name": "from",
          "type": "address"
        },
        {
          "internalType": "address",
          "name": "to",
          "type": "address"
        },
        {
          "internalType": "uint256",
          "name": "tokenId",
          "type": "uint256"
        }
      ],
      "name": "safeTransferFrom",
      "outputs": [],
      "stateMutability": "nonpayable",
      "type": "function"
    },
    {
      "inputs": [
        {
          "internalType": "address",
          "name": "from",
          "type": "address"
        },
        {
          "internalType": "address",
          "name": "to",
          "type": "address"
        },
        {
          "internalType": "uint256",
          "name": "tokenId",
          "type": "uint256"
        },
        {
          "internalType": "bytes",
          "name": "data",
          "type": "bytes"
        }
      ],
      "name": "safeTransferFrom",
      "outputs": [],
      "stateMutability": "nonpayable",
      "type": "function"
    },
    {
      "inputs": [
        {
          "internalType": "address",
          "name": "operator",
          "type": "address"
        },
        {
          "internalType": "bool",
          "name": "approved",
          "type": "bool"
        }
      ],
      "name": "setApprovalForAll",
      "outputs": [],
      "stateMutability": "nonpayable",
      "type": "function"
    },
    {
      "inputs": [
        {
          "internalType": "bytes4",
          "name": "interfaceId",
          "type": "bytes4"
        }
      ],
      "name": "supportsInterface",
      "outputs": [
        {
          "internalType": "bool",
          "name": "",
          "type": "bool"
        }
      ],
      "stateMutability": "view",
      "type": "function"
    },
    {
      "inputs": [],
      "name": "symbol",
      "outputs": [
        {
          "internalType": "string",
          "name": "",
          "type": "string"
        }
      ],
      "stateMutability": "view",
      "type": "function"
    },
    {
      "inputs": [
        {
          "internalType": "uint256",
          "name": "tokenId",
          "type": "uint256"
        }
      ],
      "name": "tokenURI",
      "outputs": [
        {
          "internalType": "string",
          "name": "",
          "type": "string"
        }
      ],
      "stateMutability": "view",
      "type": "function"
    },
    {
      "inputs": [
        {
          "internalType": "address",
          "name": "from",
          "type": "address"
        },
        {
          "internalType": "address",
          "name": "to",
          "type": "address"
        },
        {
          "internalType": "uint256",
          "name": "tokenId",
          "type": "uint256"
        }
      ],
      "name": "transferFrom",
      "outputs": [],
      "stateMutability": "nonpayable",
      "type": "function"
    },
    {
      "inputs": [
        {
          "internalType": "uint256",
          "name": "_listPrice",
          "type": "uint256"
        }
      ],
      "name": "updateListPrice",
      "outputs": [],
      "stateMutability": "payable",
      "type": "function"
    }
  ],
  "bytecode": "0x6080604052662386f26fc10000600a553480156200001c57600080fd5b506040518060400160405280600e81526020017f4e46544d61726b6574706c6163650000000000000000000000000000000000008152506040518060400160405280600481526020017f4e46544d0000000000000000000000000000000000000000000000000000000081525081600090816200009a919062000370565b508060019081620000ac919062000370565b50505033600760006101000a81548173ffffffffffffffffffffffffffffffffffffffff021916908373ffffffffffffffffffffffffffffffffffffffff16021790555062000457565b600081519050919050565b7f4e487b7100000000000000000000000000000000000000000000000000000000600052604160045260246000fd5b7f4e487b7100000000000000000000000000000000000000000000000000000000600052602260045260246000fd5b600060028204905060018216806200017857607f821691505b6020821081036200018e576200018d62000130565b5b50919050565b60008190508160005260206000209050919050565b60006020601f8301049050919050565b600082821b905092915050565b600060088302620001f87fffffffffffffffffffffffffffffffffffffffffffffffffffffffffffffffff82620001b9565b620002048683620001b9565b95508019841693508086168417925050509392505050565b6000819050919050565b6000819050919050565b6000620002516200024b62000245846200021c565b62000226565b6200021c565b9050919050565b6000819050919050565b6200026d8362000230565b620002856200027c8262000258565b848454620001c6565b825550505050565b600090565b6200029c6200028d565b620002a981848462000262565b505050565b5b81811015620002d157620002c560008262000292565b600181019050620002af565b5050565b601f8211156200032057620002ea8162000194565b620002f584620001a9565b8101602085101562000305578190505b6200031d6200031485620001a9565b830182620002ae565b50505b505050565b600082821c905092915050565b6000620003456000198460080262000325565b1980831691505092915050565b600062000360838362000332565b9150826002028217905092915050565b6200037b82620000f6565b67ffffffffffffffff81111562000397576200039662000101565b5b620003a382546200015f565b620003b0828285620002d5565b600060209050601f831160018114620003e85760008415620003d3578287015190505b620003df858262000352565b8655506200044f565b601f198416620003f88662000194565b60005b828110156200042257848901518255600182019150602085019450602081019050620003fb565b868310156200044257848901516200043e601f89168262000332565b8355505b6001600288020188555050505b505050505050565b613e6480620004676000396000f3fe6080604052600436106101355760003560e01c806395d89b41116100ab578063c322579c1161006f578063c322579c14610430578063c87b56dd1461044c578063d1a88ae514610489578063e0391b09146104b4578063e985e9c5146104df578063ef2d17461461051c57610135565b806395d89b411461035a57806398c3df16146103855780639b1225c4146103c2578063a22cb465146103de578063b88d4fde1461040757610135565b806342842e0e116100fd57806342842e0e14610231578063629cb2e41461025a5780636352211e1461028557806368f1945f146102c257806370a08231146102ed57806372b3b6201461032a57610135565b806301ffc9a71461013a57806306fdde0314610177578063081812fc146101a2578063095ea7b3146101df57806323b872dd14610208575b600080fd5b34801561014657600080fd5b50610161600480360381019061015c9190612882565b610547565b60405161016e91906128ca565b60405180910390f35b34801561018357600080fd5b5061018c610629565b6040516101999190612975565b60405180910390f35b3480156101ae57600080fd5b506101c960048036038101906101c491906129cd565b6106bb565b6040516101d69190612a3b565b60405180910390f35b3480156101eb57600080fd5b5061020660048036038101906102019190612a82565b610701565b005b34801561021457600080fd5b5061022f600480360381019061022a9190612ac2565b610818565b005b34801561023d57600080fd5b5061025860048036038101906102539190612ac2565b610878565b005b34801561026657600080fd5b5061026f610898565b60405161027c9190612c6b565b60405180910390f35b34801561029157600080fd5b506102ac60048036038101906102a791906129cd565b610c76565b6040516102b99190612a3b565b60405180910390f35b3480156102ce57600080fd5b506102d7610cfc565b6040516102e49190612c9c565b60405180910390f35b3480156102f957600080fd5b50610314600480360381019061030f9190612cb7565b610d06565b6040516103219190612c9c565b60405180910390f35b610344600480360381019061033f9190612e19565b610dbd565b6040516103519190612c9c565b60405180910390f35b34801561036657600080fd5b5061036f610e91565b60405161037c9190612975565b60405180910390f35b34801561039157600080fd5b506103ac60048036038101906103a791906129cd565b610f23565b6040516103b99190612edd565b60405180910390f35b6103dc60048036038101906103d791906129cd565b61102b565b005b3480156103ea57600080fd5b5061040560048036038101906104009190612f24565b611208565b005b34801561041357600080fd5b5061042e60048036038101906104299190613005565b61121e565b005b61044a600480360381019061044591906129cd565b611280565b005b34801561045857600080fd5b50610473600480360381019061046e91906129cd565b61131a565b6040516104809190612975565b60405180910390f35b34801561049557600080fd5b5061049e61142c565b6040516104ab9190612edd565b60405180910390f35b3480156104c057600080fd5b506104c9611541565b6040516104d69190612c6b565b60405180910390f35b3480156104eb57600080fd5b5061050660048036038101906105019190613088565b611710565b60405161051391906128ca565b60405180910390f35b34801561052857600080fd5b506105316117a4565b60405161053e9190612c9c565b60405180910390f35b60007f80ac58cd000000000000000000000000000000000000000000000000000000007bffffffffffffffffffffffffffffffffffffffffffffffffffffffff1916827bffffffffffffffffffffffffffffffffffffffffffffffffffffffff1916148061061257507f5b5e139f000000000000000000000000000000000000000000000000000000007bffffffffffffffffffffffffffffffffffffffffffffffffffffffff1916827bffffffffffffffffffffffffffffffffffffffffffffffffffffffff1916145b806106225750610621826117b5565b5b9050919050565b606060008054610638906130f7565b80601f0160208091040260200160405190810160405280929190818152602001828054610664906130f7565b80156106b15780601f10610686576101008083540402835291602001916106b1565b820191906000526020600020905b81548152906001019060200180831161069457829003601f168201915b5050505050905090565b60006106c68261181f565b6004600083815260200190815260200160002060009054906101000a900473ffffffffffffffffffffffffffffffffffffffff169050919050565b600061070c82610c76565b90508073ffffffffffffffffffffffffffffffffffffffff168373ffffffffffffffffffffffffffffffffffffffff160361077c576040517f08c379a00000000000000000000000000000000000000000000000000000000081526004016107739061319a565b60405180910390fd5b8073ffffffffffffffffffffffffffffffffffffffff1661079b61186a565b73ffffffffffffffffffffffffffffffffffffffff1614806107ca57506107c9816107c461186a565b611710565b5b610809576040517f08c379a00000000000000000000000000000000000000000000000000000000081526004016108009061322c565b60405180910390fd5b6108138383611872565b505050565b61082961082361186a565b8261192b565b610868576040517f08c379a000000000000000000000000000000000000000000000000000000000815260040161085f906132be565b60405180910390fd5b6108738383836119c0565b505050565b6108938383836040518060200160405280600081525061121e565b505050565b606060006108a66008611cb9565b905060008060005b838110156109c7573373ffffffffffffffffffffffffffffffffffffffff16600b60006001846108de919061330d565b815260200190815260200160002060010160009054906101000a900473ffffffffffffffffffffffffffffffffffffffff1673ffffffffffffffffffffffffffffffffffffffff16148061099f57503373ffffffffffffffffffffffffffffffffffffffff16600b6000600184610955919061330d565b815260200190815260200160002060020160009054906101000a900473ffffffffffffffffffffffffffffffffffffffff1673ffffffffffffffffffffffffffffffffffffffff16145b156109b4576001836109b1919061330d565b92505b80806109bf90613341565b9150506108ae565b5060008267ffffffffffffffff8111156109e4576109e3612cee565b5b604051908082528060200260200182016040528015610a1d57816020015b610a0a6127b9565b815260200190600190039081610a025790505b50905060005b84811015610c6b573373ffffffffffffffffffffffffffffffffffffffff16600b6000600184610a53919061330d565b815260200190815260200160002060010160009054906101000a900473ffffffffffffffffffffffffffffffffffffffff1673ffffffffffffffffffffffffffffffffffffffff161480610b1457503373ffffffffffffffffffffffffffffffffffffffff16600b6000600184610aca919061330d565b815260200190815260200160002060020160009054906101000a900473ffffffffffffffffffffffffffffffffffffffff1673ffffffffffffffffffffffffffffffffffffffff16145b15610c58576000600182610b28919061330d565b90506000600b60008381526020019081526020016000209050806040518060a0016040529081600082015481526020016001820160009054906101000a900473ffffffffffffffffffffffffffffffffffffffff1673ffffffffffffffffffffffffffffffffffffffff1673ffffffffffffffffffffffffffffffffffffffff1681526020016002820160009054906101000a900473ffffffffffffffffffffffffffffffffffffffff1673ffffffffffffffffffffffffffffffffffffffff1673ffffffffffffffffffffffffffffffffffffffff168152602001600382015481526020016004820160009054906101000a900460ff161515151581525050848681518110610c3b57610c3a613389565b5b6020026020010181905250600185610c53919061330d565b945050505b8080610c6390613341565b915050610a23565b508094505050505090565b600080610c8283611cc7565b9050600073ffffffffffffffffffffffffffffffffffffffff168173ffffffffffffffffffffffffffffffffffffffff1603610cf3576040517f08c379a0000000000000000000000000000000000000000000000000000000008152600401610cea90613404565b60405180910390fd5b80915050919050565b6000600a54905090565b60008073ffffffffffffffffffffffffffffffffffffffff168273ffffffffffffffffffffffffffffffffffffffff1603610d76576040517f08c379a0000000000000000000000000000000000000000000000000000000008152600401610d6d90613496565b60405180910390fd5b600360008373ffffffffffffffffffffffffffffffffffffffff1673ffffffffffffffffffffffffffffffffffffffff168152602001908152602001600020549050919050565b6000600a543414610e03576040517f08c379a0000000000000000000000000000000000000000000000000000000008152600401610dfa90613502565b60405180910390fd5b60008211610e46576040517f08c379a0000000000000000000000000000000000000000000000000000000008152600401610e3d90613594565b60405180910390fd5b610e506008611d04565b6000610e5c6008611cb9565b9050610e69306001611208565b610e733382611d1a565b610e7d8185611d38565b610e878184611da5565b8091505092915050565b606060018054610ea0906130f7565b80601f0160208091040260200160405190810160405280929190818152602001828054610ecc906130f7565b8015610f195780601f10610eee57610100808354040283529160200191610f19565b820191906000526020600020905b815481529060010190602001808311610efc57829003601f168201915b5050505050905090565b610f2b6127b9565b600b60008381526020019081526020016000206040518060a0016040529081600082015481526020016001820160009054906101000a900473ffffffffffffffffffffffffffffffffffffffff1673ffffffffffffffffffffffffffffffffffffffff1673ffffffffffffffffffffffffffffffffffffffff1681526020016002820160009054906101000a900473ffffffffffffffffffffffffffffffffffffffff1673ffffffffffffffffffffffffffffffffffffffff1673ffffffffffffffffffffffffffffffffffffffff168152602001600382015481526020016004820160009054906101000a900460ff1615151515815250509050919050565b6000600b6000838152602001908152602001600020600301549050803414611088576040517f08c379a000000000000000000000000000000000000000000000000000000000815260040161107f90613626565b60405180910390fd5b6000600b600084815260200190815260200160002060020160009054906101000a900473ffffffffffffffffffffffffffffffffffffffff1690506001600b600085815260200190815260200160002060040160006101000a81548160ff02191690831515021790555033600b600085815260200190815260200160002060020160006101000a81548173ffffffffffffffffffffffffffffffffffffffff021916908373ffffffffffffffffffffffffffffffffffffffff1602179055506111516009611d04565b600760009054906101000a900473ffffffffffffffffffffffffffffffffffffffff1673ffffffffffffffffffffffffffffffffffffffff166108fc600a549081150290604051600060405180830381858888f193505050501580156111bb573d6000803e3d6000fd5b508073ffffffffffffffffffffffffffffffffffffffff166108fc349081150290604051600060405180830381858888f19350505050158015611202573d6000803e3d6000fd5b50505050565b61121a61121361186a565b8383611ee2565b5050565b61122f61122961186a565b8361192b565b61126e576040517f08c379a0000000000000000000000000000000000000000000000000000000008152600401611265906132be565b60405180910390fd5b61127a8484848461204e565b50505050565b3373ffffffffffffffffffffffffffffffffffffffff16600760009054906101000a900473ffffffffffffffffffffffffffffffffffffffff1673ffffffffffffffffffffffffffffffffffffffff1614611310576040517f08c379a000000000000000000000000000000000000000000000000000000000815260040161130790613692565b60405180910390fd5b80600a8190555050565b60606113258261181f565b6000600660008481526020019081526020016000208054611345906130f7565b80601f0160208091040260200160405190810160405280929190818152602001828054611371906130f7565b80156113be5780601f10611393576101008083540402835291602001916113be565b820191906000526020600020905b8154815290600101906020018083116113a157829003601f168201915b5050505050905060006113cf6120aa565b905060008151036113e4578192505050611427565b6000825111156114195780826040516020016114019291906136ee565b60405160208183030381529060405292505050611427565b611422846120c1565b925050505b919050565b6114346127b9565b60006114406008611cb9565b9050600b60008281526020019081526020016000206040518060a0016040529081600082015481526020016001820160009054906101000a900473ffffffffffffffffffffffffffffffffffffffff1673ffffffffffffffffffffffffffffffffffffffff1673ffffffffffffffffffffffffffffffffffffffff1681526020016002820160009054906101000a900473ffffffffffffffffffffffffffffffffffffffff1673ffffffffffffffffffffffffffffffffffffffff1673ffffffffffffffffffffffffffffffffffffffff168152602001600382015481526020016004820160009054906101000a900460ff16151515158152505091505090565b6060600061154f6008611cb9565b905060008167ffffffffffffffff81111561156d5761156c612cee565b5b6040519080825280602002602001820160405280156115a657816020015b6115936127b9565b81526020019060019003908161158b5790505b5090506000805b838110156117065760006001826115c4919061330d565b90506000600b60008381526020019081526020016000209050806040518060a0016040529081600082015481526020016001820160009054906101000a900473ffffffffffffffffffffffffffffffffffffffff1673ffffffffffffffffffffffffffffffffffffffff1673ffffffffffffffffffffffffffffffffffffffff1681526020016002820160009054906101000a900473ffffffffffffffffffffffffffffffffffffffff1673ffffffffffffffffffffffffffffffffffffffff1673ffffffffffffffffffffffffffffffffffffffff168152602001600382015481526020016004820160009054906101000a900460ff1615151515815250508585815181106116d7576116d6613389565b5b60200260200101819052506001846116ef919061330d565b9350505080806116fe90613341565b9150506115ad565b5081935050505090565b6000600560008473ffffffffffffffffffffffffffffffffffffffff1673ffffffffffffffffffffffffffffffffffffffff16815260200190815260200160002060008373ffffffffffffffffffffffffffffffffffffffff1673ffffffffffffffffffffffffffffffffffffffff16815260200190815260200160002060009054906101000a900460ff16905092915050565b60006117b06008611cb9565b905090565b60007f01ffc9a7000000000000000000000000000000000000000000000000000000007bffffffffffffffffffffffffffffffffffffffffffffffffffffffff1916827bffffffffffffffffffffffffffffffffffffffffffffffffffffffff1916149050919050565b61182881612129565b611867576040517f08c379a000000000000000000000000000000000000000000000000000000000815260040161185e90613404565b60405180910390fd5b50565b600033905090565b816004600083815260200190815260200160002060006101000a81548173ffffffffffffffffffffffffffffffffffffffff021916908373ffffffffffffffffffffffffffffffffffffffff160217905550808273ffffffffffffffffffffffffffffffffffffffff166118e583610c76565b73ffffffffffffffffffffffffffffffffffffffff167f8c5be1e5ebec7d5bd14f71427d1e84f3dd0314c0f7b2291e5b200ac8c7c3b92560405160405180910390a45050565b60008061193783610c76565b90508073ffffffffffffffffffffffffffffffffffffffff168473ffffffffffffffffffffffffffffffffffffffff16148061197957506119788185611710565b5b806119b757508373ffffffffffffffffffffffffffffffffffffffff1661199f846106bb565b73ffffffffffffffffffffffffffffffffffffffff16145b91505092915050565b8273ffffffffffffffffffffffffffffffffffffffff166119e082610c76565b73ffffffffffffffffffffffffffffffffffffffff1614611a36576040517f08c379a0000000000000000000000000000000000000000000000000000000008152600401611a2d90613784565b60405180910390fd5b600073ffffffffffffffffffffffffffffffffffffffff168273ffffffffffffffffffffffffffffffffffffffff1603611aa5576040517f08c379a0000000000000000000000000000000000000000000000000000000008152600401611a9c90613816565b60405180910390fd5b611ab2838383600161216a565b8273ffffffffffffffffffffffffffffffffffffffff16611ad282610c76565b73ffffffffffffffffffffffffffffffffffffffff1614611b28576040517f08c379a0000000000000000000000000000000000000000000000000000000008152600401611b1f90613784565b60405180910390fd5b6004600082815260200190815260200160002060006101000a81549073ffffffffffffffffffffffffffffffffffffffff02191690556001600360008573ffffffffffffffffffffffffffffffffffffffff1673ffffffffffffffffffffffffffffffffffffffff168152602001908152602001600020600082825403925050819055506001600360008473ffffffffffffffffffffffffffffffffffffffff1673ffffffffffffffffffffffffffffffffffffffff16815260200190815260200160002060008282540192505081905550816002600083815260200190815260200160002060006101000a81548173ffffffffffffffffffffffffffffffffffffffff021916908373ffffffffffffffffffffffffffffffffffffffff160217905550808273ffffffffffffffffffffffffffffffffffffffff168473ffffffffffffffffffffffffffffffffffffffff167fddf252ad1be2c89b69c2b068fc378daa952ba7f163c4a11628f55a4df523b3ef60405160405180910390a4611cb48383836001612170565b505050565b600081600001549050919050565b60006002600083815260200190815260200160002060009054906101000a900473ffffffffffffffffffffffffffffffffffffffff169050919050565b6001816000016000828254019250508190555050565b611d34828260405180602001604052806000815250612176565b5050565b611d4182612129565b611d80576040517f08c379a0000000000000000000000000000000000000000000000000000000008152600401611d77906138a8565b60405180910390fd5b80600660008481526020019081526020016000209081611da09190613a74565b505050565b6040518060a001604052808381526020013073ffffffffffffffffffffffffffffffffffffffff1681526020013373ffffffffffffffffffffffffffffffffffffffff16815260200182815260200160011515815250600b60008481526020019081526020016000206000820151816000015560208201518160010160006101000a81548173ffffffffffffffffffffffffffffffffffffffff021916908373ffffffffffffffffffffffffffffffffffffffff16021790555060408201518160020160006101000a81548173ffffffffffffffffffffffffffffffffffffffff021916908373ffffffffffffffffffffffffffffffffffffffff1602179055506060820151816003015560808201518160040160006101000a81548160ff021916908315150217905550905050611ede3330846119c0565b5050565b8173ffffffffffffffffffffffffffffffffffffffff168373ffffffffffffffffffffffffffffffffffffffff1603611f50576040517f08c379a0000000000000000000000000000000000000000000000000000000008152600401611f4790613b92565b60405180910390fd5b80600560008573ffffffffffffffffffffffffffffffffffffffff1673ffffffffffffffffffffffffffffffffffffffff16815260200190815260200160002060008473ffffffffffffffffffffffffffffffffffffffff1673ffffffffffffffffffffffffffffffffffffffff16815260200190815260200160002060006101000a81548160ff0219169083151502179055508173ffffffffffffffffffffffffffffffffffffffff168373ffffffffffffffffffffffffffffffffffffffff167f17307eab39ab6107e8899845ad3d59bd9653f200f220920489ca2b5937696c318360405161204191906128ca565b60405180910390a3505050565b6120598484846119c0565b612065848484846121d1565b6120a4576040517f08c379a000000000000000000000000000000000000000000000000000000000815260040161209b90613c24565b60405180910390fd5b50505050565b606060405180602001604052806000815250905090565b60606120cc8261181f565b60006120d66120aa565b905060008151116120f65760405180602001604052806000815250612121565b8061210084612358565b6040516020016121119291906136ee565b6040516020818303038152906040525b915050919050565b60008073ffffffffffffffffffffffffffffffffffffffff1661214b83611cc7565b73ffffffffffffffffffffffffffffffffffffffff1614159050919050565b50505050565b50505050565b6121808383612426565b61218d60008484846121d1565b6121cc576040517f08c379a00000000000000000000000000000000000000000000000000000000081526004016121c390613c24565b60405180910390fd5b505050565b60006121f28473ffffffffffffffffffffffffffffffffffffffff16612643565b1561234b578373ffffffffffffffffffffffffffffffffffffffff1663150b7a0261221b61186a565b8786866040518563ffffffff1660e01b815260040161223d9493929190613c99565b6020604051808303816000875af192505050801561227957506040513d601f19601f820116820180604052508101906122769190613cfa565b60015b6122fb573d80600081146122a9576040519150601f19603f3d011682016040523d82523d6000602084013e6122ae565b606091505b5060008151036122f3576040517f08c379a00000000000000000000000000000000000000000000000000000000081526004016122ea90613c24565b60405180910390fd5b805181602001fd5b63150b7a0260e01b7bffffffffffffffffffffffffffffffffffffffffffffffffffffffff1916817bffffffffffffffffffffffffffffffffffffffffffffffffffffffff191614915050612350565b600190505b949350505050565b60606000600161236784612666565b01905060008167ffffffffffffffff81111561238657612385612cee565b5b6040519080825280601f01601f1916602001820160405280156123b85781602001600182028036833780820191505090505b509050600082602001820190505b60011561241b578080600190039150507f3031323334353637383961626364656600000000000000000000000000000000600a86061a8153600a858161240f5761240e613d27565b5b049450600085036123c6575b819350505050919050565b600073ffffffffffffffffffffffffffffffffffffffff168273ffffffffffffffffffffffffffffffffffffffff1603612495576040517f08c379a000000000000000000000000000000000000000000000000000000000815260040161248c90613da2565b60405180910390fd5b61249e81612129565b156124de576040517f08c379a00000000000000000000000000000000000000000000000000000000081526004016124d590613e0e565b60405180910390fd5b6124ec60008383600161216a565b6124f581612129565b15612535576040517f08c379a000000000000000000000000000000000000000000000000000000000815260040161252c90613e0e565b60405180910390fd5b6001600360008473ffffffffffffffffffffffffffffffffffffffff1673ffffffffffffffffffffffffffffffffffffffff16815260200190815260200160002060008282540192505081905550816002600083815260200190815260200160002060006101000a81548173ffffffffffffffffffffffffffffffffffffffff021916908373ffffffffffffffffffffffffffffffffffffffff160217905550808273ffffffffffffffffffffffffffffffffffffffff16600073ffffffffffffffffffffffffffffffffffffffff167fddf252ad1be2c89b69c2b068fc378daa952ba7f163c4a11628f55a4df523b3ef60405160405180910390a461263f600083836001612170565b5050565b6000808273ffffffffffffffffffffffffffffffffffffffff163b119050919050565b600080600090507a184f03e93ff9f4daa797ed6e38ed64bf6a1f01000000000000000083106126c4577a184f03e93ff9f4daa797ed6e38ed64bf6a1f01000000000000000083816126ba576126b9613d27565b5b0492506040810190505b6d04ee2d6d415b85acef81000000008310612701576d04ee2d6d415b85acef810000000083816126f7576126f6613d27565b5b0492506020810190505b662386f26fc10000831061273057662386f26fc10000838161272657612725613d27565b5b0492506010810190505b6305f5e1008310612759576305f5e100838161274f5761274e613d27565b5b0492506008810190505b612710831061277e57612710838161277457612773613d27565b5b0492506004810190505b606483106127a1576064838161279757612796613d27565b5b0492506002810190505b600a83106127b0576001810190505b80915050919050565b6040518060a0016040528060008152602001600073ffffffffffffffffffffffffffffffffffffffff168152602001600073ffffffffffffffffffffffffffffffffffffffff168152602001600081526020016000151581525090565b6000604051905090565b600080fd5b600080fd5b60007fffffffff0000000000000000000000000000000000000000000000000000000082169050919050565b61285f8161282a565b811461286a57600080fd5b50565b60008135905061287c81612856565b92915050565b60006020828403121561289857612897612820565b5b60006128a68482850161286d565b91505092915050565b60008115159050919050565b6128c4816128af565b82525050565b60006020820190506128df60008301846128bb565b92915050565b600081519050919050565b600082825260208201905092915050565b60005b8381101561291f578082015181840152602081019050612904565b60008484015250505050565b6000601f19601f8301169050919050565b6000612947826128e5565b61295181856128f0565b9350612961818560208601612901565b61296a8161292b565b840191505092915050565b6000602082019050818103600083015261298f818461293c565b905092915050565b6000819050919050565b6129aa81612997565b81146129b557600080fd5b50565b6000813590506129c7816129a1565b92915050565b6000602082840312156129e3576129e2612820565b5b60006129f1848285016129b8565b91505092915050565b600073ffffffffffffffffffffffffffffffffffffffff82169050919050565b6000612a25826129fa565b9050919050565b612a3581612a1a565b82525050565b6000602082019050612a506000830184612a2c565b92915050565b612a5f81612a1a565b8114612a6a57600080fd5b50565b600081359050612a7c81612a56565b92915050565b60008060408385031215612a9957612a98612820565b5b6000612aa785828601612a6d565b9250506020612ab8858286016129b8565b9150509250929050565b600080600060608486031215612adb57612ada612820565b5b6000612ae986828701612a6d565b9350506020612afa86828701612a6d565b9250506040612b0b868287016129b8565b9150509250925092565b600081519050919050565b600082825260208201905092915050565b6000819050602082019050919050565b612b4a81612997565b82525050565b6000612b5b826129fa565b9050919050565b612b6b81612b50565b82525050565b612b7a816128af565b82525050565b60a082016000820151612b966000850182612b41565b506020820151612ba96020850182612b62565b506040820151612bbc6040850182612b62565b506060820151612bcf6060850182612b41565b506080820151612be26080850182612b71565b50505050565b6000612bf48383612b80565b60a08301905092915050565b6000602082019050919050565b6000612c1882612b15565b612c228185612b20565b9350612c2d83612b31565b8060005b83811015612c5e578151612c458882612be8565b9750612c5083612c00565b925050600181019050612c31565b5085935050505092915050565b60006020820190508181036000830152612c858184612c0d565b905092915050565b612c9681612997565b82525050565b6000602082019050612cb16000830184612c8d565b92915050565b600060208284031215612ccd57612ccc612820565b5b6000612cdb84828501612a6d565b91505092915050565b600080fd5b600080fd5b7f4e487b7100000000000000000000000000000000000000000000000000000000600052604160045260246000fd5b612d268261292b565b810181811067ffffffffffffffff82111715612d4557612d44612cee565b5b80604052505050565b6000612d58612816565b9050612d648282612d1d565b919050565b600067ffffffffffffffff821115612d8457612d83612cee565b5b612d8d8261292b565b9050602081019050919050565b82818337600083830152505050565b6000612dbc612db784612d69565b612d4e565b905082815260208101848484011115612dd857612dd7612ce9565b5b612de3848285612d9a565b509392505050565b600082601f830112612e0057612dff612ce4565b5b8135612e10848260208601612da9565b91505092915050565b60008060408385031215612e3057612e2f612820565b5b600083013567ffffffffffffffff811115612e4e57612e4d612825565b5b612e5a85828601612deb565b9250506020612e6b858286016129b8565b9150509250929050565b60a082016000820151612e8b6000850182612b41565b506020820151612e9e6020850182612b62565b506040820151612eb16040850182612b62565b506060820151612ec46060850182612b41565b506080820151612ed76080850182612b71565b50505050565b600060a082019050612ef26000830184612e75565b92915050565b612f01816128af565b8114612f0c57600080fd5b50565b600081359050612f1e81612ef8565b92915050565b60008060408385031215612f3b57612f3a612820565b5b6000612f4985828601612a6d565b9250506020612f5a85828601612f0f565b9150509250929050565b600067ffffffffffffffff821115612f7f57612f7e612cee565b5b612f888261292b565b9050602081019050919050565b6000612fa8612fa384612f64565b612d4e565b905082815260208101848484011115612fc457612fc3612ce9565b5b612fcf848285612d9a565b509392505050565b600082601f830112612fec57612feb612ce4565b5b8135612ffc848260208601612f95565b91505092915050565b6000806000806080858703121561301f5761301e612820565b5b600061302d87828801612a6d565b945050602061303e87828801612a6d565b935050604061304f878288016129b8565b925050606085013567ffffffffffffffff8111156130705761306f612825565b5b61307c87828801612fd7565b91505092959194509250565b6000806040838503121561309f5761309e612820565b5b60006130ad85828601612a6d565b92505060206130be85828601612a6d565b9150509250929050565b7f4e487b7100000000000000000000000000000000000000000000000000000000600052602260045260246000fd5b6000600282049050600182168061310f57607f821691505b602082108103613122576131216130c8565b5b50919050565b7f4552433732313a20617070726f76616c20746f2063757272656e74206f776e6560008201527f7200000000000000000000000000000000000000000000000000000000000000602082015250565b60006131846021836128f0565b915061318f82613128565b604082019050919050565b600060208201905081810360008301526131b381613177565b9050919050565b7f4552433732313a20617070726f76652063616c6c6572206973206e6f7420746f60008201527f6b656e206f776e6572206f7220617070726f76656420666f7220616c6c000000602082015250565b6000613216603d836128f0565b9150613221826131ba565b604082019050919050565b6000602082019050818103600083015261324581613209565b9050919050565b7f4552433732313a2063616c6c6572206973206e6f7420746f6b656e206f776e6560008201527f72206f7220617070726f76656400000000000000000000000000000000000000602082015250565b60006132a8602d836128f0565b91506132b38261324c565b604082019050919050565b600060208201905081810360008301526132d78161329b565b9050919050565b7f4e487b7100000000000000000000000000000000000000000000000000000000600052601160045260246000fd5b600061331882612997565b915061332383612997565b925082820190508082111561333b5761333a6132de565b5b92915050565b600061334c82612997565b91507fffffffffffffffffffffffffffffffffffffffffffffffffffffffffffffffff820361337e5761337d6132de565b5b600182019050919050565b7f4e487b7100000000000000000000000000000000000000000000000000000000600052603260045260246000fd5b7f4552433732313a20696e76616c696420746f6b656e2049440000000000000000600082015250565b60006133ee6018836128f0565b91506133f9826133b8565b602082019050919050565b6000602082019050818103600083015261341d816133e1565b9050919050565b7f4552433732313a2061646472657373207a65726f206973206e6f74206120766160008201527f6c6964206f776e65720000000000000000000000000000000000000000000000602082015250565b60006134806029836128f0565b915061348b82613424565b604082019050919050565b600060208201905081810360008301526134af81613473565b9050919050565b7f53656e6420656e6f75676820657468657220746f206c69737400000000000000600082015250565b60006134ec6019836128f0565b91506134f7826134b6565b602082019050919050565b6000602082019050818103600083015261351b816134df565b9050919050565b7f4d616b652073757265207468652070726963652069736e2774206e656761746960008201527f7665000000000000000000000000000000000000000000000000000000000000602082015250565b600061357e6022836128f0565b915061358982613522565b604082019050919050565b600060208201905081810360008301526135ad81613571565b9050919050565b7f506c65617365207375626d6974207468652061736b696e67207072696365206660008201527f6f7220746865204e465420696e206f7264657220746f20707572636861736500602082015250565b6000613610603f836128f0565b915061361b826135b4565b604082019050919050565b6000602082019050818103600083015261363f81613603565b9050919050565b7f4f6e6c79206f776e657220697320616c6c6f77656420746f2061636365737300600082015250565b600061367c601f836128f0565b915061368782613646565b602082019050919050565b600060208201905081810360008301526136ab8161366f565b9050919050565b600081905092915050565b60006136c8826128e5565b6136d281856136b2565b93506136e2818560208601612901565b80840191505092915050565b60006136fa82856136bd565b915061370682846136bd565b91508190509392505050565b7f4552433732313a207472616e736665722066726f6d20696e636f72726563742060008201527f6f776e6572000000000000000000000000000000000000000000000000000000602082015250565b600061376e6025836128f0565b915061377982613712565b604082019050919050565b6000602082019050818103600083015261379d81613761565b9050919050565b7f4552433732313a207472616e7366657220746f20746865207a65726f2061646460008201527f7265737300000000000000000000000000000000000000000000000000000000602082015250565b60006138006024836128f0565b915061380b826137a4565b604082019050919050565b6000602082019050818103600083015261382f816137f3565b9050919050565b7f45524337323155524953746f726167653a2055524920736574206f66206e6f6e60008201527f6578697374656e7420746f6b656e000000000000000000000000000000000000602082015250565b6000613892602e836128f0565b915061389d82613836565b604082019050919050565b600060208201905081810360008301526138c181613885565b9050919050565b60008190508160005260206000209050919050565b60006020601f8301049050919050565b600082821b905092915050565b60006008830261392a7fffffffffffffffffffffffffffffffffffffffffffffffffffffffffffffffff826138ed565b61393486836138ed565b95508019841693508086168417925050509392505050565b6000819050919050565b600061397161396c61396784612997565b61394c565b612997565b9050919050565b6000819050919050565b61398b83613956565b61399f61399782613978565b8484546138fa565b825550505050565b600090565b6139b46139a7565b6139bf818484613982565b505050565b5b818110156139e3576139d86000826139ac565b6001810190506139c5565b5050565b601f821115613a28576139f9816138c8565b613a02846138dd565b81016020851015613a11578190505b613a25613a1d856138dd565b8301826139c4565b50505b505050565b600082821c905092915050565b6000613a4b60001984600802613a2d565b1980831691505092915050565b6000613a648383613a3a565b9150826002028217905092915050565b613a7d826128e5565b67ffffffffffffffff811115613a9657613a95612cee565b5b613aa082546130f7565b613aab8282856139e7565b600060209050601f831160018114613ade5760008415613acc578287015190505b613ad68582613a58565b865550613b3e565b601f198416613aec866138c8565b60005b82811015613b1457848901518255600182019150602085019450602081019050613aef565b86831015613b315784890151613b2d601f891682613a3a565b8355505b6001600288020188555050505b505050505050565b7f4552433732313a20617070726f766520746f2063616c6c657200000000000000600082015250565b6000613b7c6019836128f0565b9150613b8782613b46565b602082019050919050565b60006020820190508181036000830152613bab81613b6f565b9050919050565b7f4552433732313a207472616e7366657220746f206e6f6e20455243373231526560008201527f63656976657220696d706c656d656e7465720000000000000000000000000000602082015250565b6000613c0e6032836128f0565b9150613c1982613bb2565b604082019050919050565b60006020820190508181036000830152613c3d81613c01565b9050919050565b600081519050919050565b600082825260208201905092915050565b6000613c6b82613c44565b613c758185613c4f565b9350613c85818560208601612901565b613c8e8161292b565b840191505092915050565b6000608082019050613cae6000830187612a2c565b613cbb6020830186612a2c565b613cc86040830185612c8d565b8181036060830152613cda8184613c60565b905095945050505050565b600081519050613cf481612856565b92915050565b600060208284031215613d1057613d0f612820565b5b6000613d1e84828501613ce5565b91505092915050565b7f4e487b7100000000000000000000000000000000000000000000000000000000600052601260045260246000fd5b7f4552433732313a206d696e7420746f20746865207a65726f2061646472657373600082015250565b6000613d8c6020836128f0565b9150613d9782613d56565b602082019050919050565b60006020820190508181036000830152613dbb81613d7f565b9050919050565b7f4552433732313a20746f6b656e20616c7265616479206d696e74656400000000600082015250565b6000613df8601c836128f0565b9150613e0382613dc2565b602082019050919050565b60006020820190508181036000830152613e2781613deb565b905091905056fea2646970667358221220ebc98dbdc86c167b4491018144dc0215e8161ad448f81eeb476106053df2edad64736f6c63430008130033",
  "linkReferences": {},
  "deployedLinkReferences": {}
}