{
  "contractName": "TetherToken",
  "abi": [
    {
      "inputs": [],
      "stateMutability": "nonpayable",
      "type": "constructor"
    },
    {
      "anonymous": false,
      "inputs": [
        {
          "indexed": true,
          "internalType": "address",
          "name": "_owner",
          "type": "address"
        },
        {
          "indexed": true,
          "internalType": "address",
          "name": "_spender",
          "type": "address"
        },
        {
          "indexed": false,
          "internalType": "uint256",
          "name": "_value",
          "type": "uint256"
        }
      ],
      "name": "approve",
      "type": "event"
    },
    {
      "anonymous": false,
      "inputs": [
        {
          "indexed": true,
          "internalType": "address",
          "name": "_from",
          "type": "address"
        },
        {
          "indexed": true,
          "internalType": "address",
          "name": "_to",
          "type": "address"
        },
        {
          "indexed": false,
          "internalType": "uint256",
          "name": "_value",
          "type": "uint256"
        }
      ],
      "name": "transfer",
      "type": "event"
    },
    {
      "inputs": [
        {
          "internalType": "address",
          "name": "",
          "type": "address"
        },
        {
          "internalType": "address",
          "name": "",
          "type": "address"
        }
      ],
      "name": "allowance",
      "outputs": [
        {
          "internalType": "uint256",
          "name": "",
          "type": "uint256"
        }
      ],
      "stateMutability": "view",
      "type": "function",
      "constant": true
    },
    {
      "inputs": [
        {
          "internalType": "address",
          "name": "",
          "type": "address"
        }
      ],
      "name": "balance",
      "outputs": [
        {
          "internalType": "uint256",
          "name": "",
          "type": "uint256"
        }
      ],
      "stateMutability": "view",
      "type": "function",
      "constant": true
    },
    {
      "inputs": [],
      "name": "decimal",
      "outputs": [
        {
          "internalType": "uint256",
          "name": "",
          "type": "uint256"
        }
      ],
      "stateMutability": "view",
      "type": "function",
      "constant": true
    },
    {
      "inputs": [],
      "name": "name",
      "outputs": [
        {
          "internalType": "string",
          "name": "",
          "type": "string"
        }
      ],
      "stateMutability": "view",
      "type": "function",
      "constant": true
    },
    {
      "inputs": [],
      "name": "symbol",
      "outputs": [
        {
          "internalType": "string",
          "name": "",
          "type": "string"
        }
      ],
      "stateMutability": "view",
      "type": "function",
      "constant": true
    },
    {
      "inputs": [],
      "name": "totalSupply",
      "outputs": [
        {
          "internalType": "uint256",
          "name": "",
          "type": "uint256"
        }
      ],
      "stateMutability": "view",
      "type": "function",
      "constant": true
    },
    {
      "inputs": [
        {
          "internalType": "address",
          "name": "_to",
          "type": "address"
        },
        {
          "internalType": "uint256",
          "name": "_value",
          "type": "uint256"
        }
      ],
      "name": "transferValue",
      "outputs": [
        {
          "internalType": "bool",
          "name": "success",
          "type": "bool"
        }
      ],
      "stateMutability": "nonpayable",
      "type": "function"
    },
    {
      "inputs": [
        {
          "internalType": "address",
          "name": "_spender",
          "type": "address"
        },
        {
          "internalType": "uint256",
          "name": "_value",
          "type": "uint256"
        }
      ],
      "name": "approveValue",
      "outputs": [
        {
          "internalType": "bool",
          "name": "success",
          "type": "bool"
        }
      ],
      "stateMutability": "nonpayable",
      "type": "function"
    },
    {
      "inputs": [
        {
          "internalType": "address",
          "name": "_from",
          "type": "address"
        },
        {
          "internalType": "address",
          "name": "_to",
          "type": "address"
        },
        {
          "internalType": "uint256",
          "name": "_value",
          "type": "uint256"
        }
      ],
      "name": "transferFrom",
      "outputs": [
        {
          "internalType": "bool",
          "name": "success",
          "type": "bool"
        }
      ],
      "stateMutability": "nonpayable",
      "type": "function"
    }
  ],
  "bytecode": "0x60806040526040518060400160405280601281526020017f44756d6d792054657468657220546f6b656e0000000000000000000000000000815250600090816200004a919062000377565b506040518060400160405280600681526020017f54657468657200000000000000000000000000000000000000000000000000008152506001908162000091919062000377565b5067016345785d8a00006002556012600355348015620000b057600080fd5b50600254600460003373ffffffffffffffffffffffffffffffffffffffff1673ffffffffffffffffffffffffffffffffffffffff168152602001908152602001600020819055506200045e565b600081519050919050565b7f4e487b7100000000000000000000000000000000000000000000000000000000600052604160045260246000fd5b7f4e487b7100000000000000000000000000000000000000000000000000000000600052602260045260246000fd5b600060028204905060018216806200017f57607f821691505b60208210810362000195576200019462000137565b5b50919050565b60008190508160005260206000209050919050565b60006020601f8301049050919050565b600082821b905092915050565b600060088302620001ff7fffffffffffffffffffffffffffffffffffffffffffffffffffffffffffffffff82620001c0565b6200020b8683620001c0565b95508019841693508086168417925050509392505050565b6000819050919050565b6000819050919050565b600062000258620002526200024c8462000223565b6200022d565b62000223565b9050919050565b6000819050919050565b620002748362000237565b6200028c62000283826200025f565b848454620001cd565b825550505050565b600090565b620002a362000294565b620002b081848462000269565b505050565b5b81811015620002d857620002cc60008262000299565b600181019050620002b6565b5050565b601f8211156200032757620002f1816200019b565b620002fc84620001b0565b810160208510156200030c578190505b620003246200031b85620001b0565b830182620002b5565b50505b505050565b600082821c905092915050565b60006200034c600019846008026200032c565b1980831691505092915050565b600062000367838362000339565b9150826002028217905092915050565b6200038282620000fd565b67ffffffffffffffff8111156200039e576200039d62000108565b5b620003aa825462000166565b620003b7828285620002dc565b600060209050601f831160018114620003ef5760008415620003da578287015190505b620003e6858262000359565b86555062000456565b601f198416620003ff866200019b565b60005b82811015620004295784890151825560018201915060208501945060208101905062000402565b8683101562000449578489015162000445601f89168262000339565b8355505b6001600288020188555050505b505050505050565b610c1e806200046e6000396000f3fe608060405234801561001057600080fd5b50600436106100935760003560e01c806367a71e2b1161006657806367a71e2b1461013457806376809ce31461016457806395d89b4114610182578063dd62ed3e146101a0578063e3d670d7146101d057610093565b806306fdde031461009857806318160ddd146100b657806323b872dd146100d45780635a4161ff14610104575b600080fd5b6100a0610200565b6040516100ad91906108d6565b60405180910390f35b6100be61028e565b6040516100cb9190610911565b60405180910390f35b6100ee60048036038101906100e991906109bb565b610294565b6040516100fb9190610a29565b60405180910390f35b61011e60048036038101906101199190610a44565b61051a565b60405161012b9190610a29565b60405180910390f35b61014e60048036038101906101499190610a44565b610683565b60405161015b9190610a29565b60405180910390f35b61016c610775565b6040516101799190610911565b60405180910390f35b61018a61077b565b60405161019791906108d6565b60405180910390f35b6101ba60048036038101906101b59190610a84565b610809565b6040516101c79190610911565b60405180910390f35b6101ea60048036038101906101e59190610ac4565b61082e565b6040516101f79190610911565b60405180910390f35b6000805461020d90610b20565b80601f016020809104026020016040519081016040528092919081815260200182805461023990610b20565b80156102865780601f1061025b57610100808354040283529160200191610286565b820191906000526020600020905b81548152906001019060200180831161026957829003601f168201915b505050505081565b60025481565b6000600460008573ffffffffffffffffffffffffffffffffffffffff1673ffffffffffffffffffffffffffffffffffffffff168152602001908152602001600020548211156102e257600080fd5b600560008573ffffffffffffffffffffffffffffffffffffffff1673ffffffffffffffffffffffffffffffffffffffff16815260200190815260200160002060003373ffffffffffffffffffffffffffffffffffffffff1673ffffffffffffffffffffffffffffffffffffffff1681526020019081526020016000205482111561036b57600080fd5b81600460008673ffffffffffffffffffffffffffffffffffffffff1673ffffffffffffffffffffffffffffffffffffffff16815260200190815260200160002060008282546103ba9190610b80565b9250508190555081600460008573ffffffffffffffffffffffffffffffffffffffff1673ffffffffffffffffffffffffffffffffffffffff16815260200190815260200160002060008282546104109190610bb4565b9250508190555081600560008673ffffffffffffffffffffffffffffffffffffffff1673ffffffffffffffffffffffffffffffffffffffff16815260200190815260200160002060003373ffffffffffffffffffffffffffffffffffffffff1673ffffffffffffffffffffffffffffffffffffffff16815260200190815260200160002060008282546104a39190610b80565b925050819055508273ffffffffffffffffffffffffffffffffffffffff168473ffffffffffffffffffffffffffffffffffffffff167fbeabacc8ffedac16e9a60acdb2ca743d80c2ebb44977a93fa8e483c74d2b35a8846040516105079190610911565b60405180910390a3600190509392505050565b600081600460003373ffffffffffffffffffffffffffffffffffffffff1673ffffffffffffffffffffffffffffffffffffffff16815260200190815260200160002054101561056857600080fd5b81600460003373ffffffffffffffffffffffffffffffffffffffff1673ffffffffffffffffffffffffffffffffffffffff16815260200190815260200160002060008282546105b79190610b80565b9250508190555081600460008573ffffffffffffffffffffffffffffffffffffffff1673ffffffffffffffffffffffffffffffffffffffff168152602001908152602001600020600082825461060d9190610bb4565b925050819055508273ffffffffffffffffffffffffffffffffffffffff163373ffffffffffffffffffffffffffffffffffffffff167fbeabacc8ffedac16e9a60acdb2ca743d80c2ebb44977a93fa8e483c74d2b35a8846040516106719190610911565b60405180910390a36001905092915050565b600081600560003373ffffffffffffffffffffffffffffffffffffffff1673ffffffffffffffffffffffffffffffffffffffff16815260200190815260200160002060008573ffffffffffffffffffffffffffffffffffffffff1673ffffffffffffffffffffffffffffffffffffffff168152602001908152602001600020819055508273ffffffffffffffffffffffffffffffffffffffff163373ffffffffffffffffffffffffffffffffffffffff167fe1f21c67180317619fcafa578cb44275002011f9ad81f61220c62be2c4415336846040516107639190610911565b60405180910390a36001905092915050565b60035481565b6001805461078890610b20565b80601f01602080910402602001604051908101604052809291908181526020018280546107b490610b20565b80156108015780601f106107d657610100808354040283529160200191610801565b820191906000526020600020905b8154815290600101906020018083116107e457829003601f168201915b505050505081565b6005602052816000526040600020602052806000526040600020600091509150505481565b60046020528060005260406000206000915090505481565b600081519050919050565b600082825260208201905092915050565b60005b83811015610880578082015181840152602081019050610865565b60008484015250505050565b6000601f19601f8301169050919050565b60006108a882610846565b6108b28185610851565b93506108c2818560208601610862565b6108cb8161088c565b840191505092915050565b600060208201905081810360008301526108f0818461089d565b905092915050565b6000819050919050565b61090b816108f8565b82525050565b60006020820190506109266000830184610902565b92915050565b600080fd5b600073ffffffffffffffffffffffffffffffffffffffff82169050919050565b600061095c82610931565b9050919050565b61096c81610951565b811461097757600080fd5b50565b60008135905061098981610963565b92915050565b610998816108f8565b81146109a357600080fd5b50565b6000813590506109b58161098f565b92915050565b6000806000606084860312156109d4576109d361092c565b5b60006109e28682870161097a565b93505060206109f38682870161097a565b9250506040610a04868287016109a6565b9150509250925092565b60008115159050919050565b610a2381610a0e565b82525050565b6000602082019050610a3e6000830184610a1a565b92915050565b60008060408385031215610a5b57610a5a61092c565b5b6000610a698582860161097a565b9250506020610a7a858286016109a6565b9150509250929050565b60008060408385031215610a9b57610a9a61092c565b5b6000610aa98582860161097a565b9250506020610aba8582860161097a565b9150509250929050565b600060208284031215610ada57610ad961092c565b5b6000610ae88482850161097a565b91505092915050565b7f4e487b7100000000000000000000000000000000000000000000000000000000600052602260045260246000fd5b60006002820490506001821680610b3857607f821691505b602082108103610b4b57610b4a610af1565b5b50919050565b7f4e487b7100000000000000000000000000000000000000000000000000000000600052601160045260246000fd5b6000610b8b826108f8565b9150610b96836108f8565b9250828203905081811115610bae57610bad610b51565b5b92915050565b6000610bbf826108f8565b9150610bca836108f8565b9250828201905080821115610be257610be1610b51565b5b9291505056fea2646970667358221220c001a1a7fa2d7cd32fb6f72cf5ffaf89d8c860779035dcf69f97f48b923bc8d164736f6c63430008110033",
  "immutableReferences": {},
  "source": "// SPDX-License-Identifier: vkanike\r\n\r\npragma solidity >=0.4.0 <0.9.0;\r\n\r\ncontract TetherToken {\r\n    string public name = \"Dummy Tether Token\";\r\n    string public symbol = \"Tether\";\r\n    uint public totalSupply = 100000000000000000;\r\n    uint public decimal = 18;\r\n\r\n    event transfer(\r\n        address indexed _from,\r\n        address indexed _to,\r\n        uint _value\r\n    );\r\n\r\n    event approve(\r\n        address indexed _owner,\r\n        address indexed _spender,\r\n        uint _value\r\n    );\r\n\r\n    mapping(address => uint) public balance;\r\n    mapping(address => mapping(address => uint)) public allowance;\r\n\r\n    constructor() {\r\n        balance[msg.sender] = totalSupply;\r\n    }\r\n\r\n    function transferValue(address _to, uint _value) public returns(bool success) {\r\n        require(balance[msg.sender] >= _value);\r\n        balance[msg.sender] -= _value;\r\n        balance[_to] += _value;\r\n        emit transfer(msg.sender, _to, _value);\r\n        return true;\r\n    }\r\n\r\n    function approveValue(address _spender, uint _value) public returns(bool success) {\r\n        allowance[msg.sender][_spender] = _value;\r\n        emit approve(msg.sender, _spender, _value);       \r\n        return true;\r\n    }\r\n\r\n    function transferFrom(address _from, address _to, uint _value) public returns(bool success) {\r\n        require(_value <= balance[_from]);\r\n        require(_value <= allowance[_from][msg.sender]);\r\n        balance[_from] -= _value;\r\n        balance[_to] += _value;\r\n        allowance[_from][msg.sender] -= _value;\r\n        emit transfer(_from, _to, _value);\r\n        return true;\r\n        \r\n    }\r\n}",
  "sourcePath": "D:\\Workspace\\Ethereum Development\\Dev\\stake-smart-contract\\src\\contracts\\TetherToken.sol",
  "compiler": {
    "name": "solc",
    "version": "0.8.17+commit.8df45f5f.Emscripten.clang"
  },
  "schemaVersion": "3.4.11",
  "updatedAt": "2023-02-04T11:29:10.568Z",
  "networkType": "ethereum",
  "devdoc": {
    "kind": "dev",
    "methods": {},
    "version": 1
  },
  "userdoc": {
    "kind": "user",
    "methods": {},
    "version": 1
  }
}